S0130000556E697448616E646C65722E73726563B3
S113000071C000007AC0000078C0000076C0000013
S113001074C0000072C0000070C000006EC0000018
S11300206CC000006AC0000068C0000066C0000028
S113003064C0000062C0000060C000005EC0000038
S11300405CC000005AC0000058C0000056C0000048
S113005054C0000052C0000050C000004EC0000058
S11300604CC000004AC0000048C0000046C0000068
S113007044C0000042C0000040C000003EC0000078
S11300803CC000003AC0000038C0000036C0000088
S113009034C0000032C0000030C000002EC0000098
S11300A02CC000002AC0000028C0000026C00000A8
S11300B024C0000022C0000020C000001EC00000B8
S11300C01CC000001AC0000018C0000016C00000C8
S11300D014C0000012C0000010C000000EC00000D8
S11300E00CC0000011241FBECFEFD1E2DEBFCDBF94
S11300F000E00CBF03D00C947A0B82CFCF92DF9236
S1130100EF92FF920F931F93CF93DF93CDB7DEB798
S1130110C650D4400FB6F894DEBF0FBECDBFFE016B
S1130120EF5FFD4F80E092E0DF019C011D922150C2
S11301303040E1F720E048E060E875E280E090E0DC
S11301407BD360EA7FE0CE018C5F9B4FCBD08FE303
S11301509CE90197F1F700C00000CE018C5F9B4F32
S1130160D1D0BE016C5F7B4FCE018F5F9B4FAFD36D
S1130170C12CD12C76019E012F5F3D4FB701A60102
S1130180CE018C5F9B4F79D29FEFC91AD90AE90A35
S1130190F90AA4E6CA16D104E104F10461F76AEA93
S11301A0CE018F5F9B4FB1D56BEBCE018F5F9B4F21
S11301B0ACD56CECCE018F5F9B4FA7D56DEDCE0116
S11301C08F5F9B4FA2D56EEECE018F5F9B4F9DD567
S11301D06EEFCE018F5F9B4F98D54BEB61E0CE0164
S11301E08F5F9B4F32D64BEB62E0CE018F5F9B4F0C
S11301F02CD64BEB63E0CE018F5F9B4F26D64BEBA7
S113020064E0CE018F5F9B4F20D64BEB65E0CE01BF
S11302108F5F9B4F1AD64BEB66E0CE018F5F9B4FEF
S113022014D663E0CE018F5F9B4FA4D44AEA63E304
S1130230CE018F5F9B4F09D64BEB64E0CE018F5FFD
S11302409B4FC8D66AEACE018F5F9B4F88D76EE07A
S1130250CE018F5F9B4F59D526E645E562E0CE017E
S11302608F5F9B4F0E945D0A8E010F5F1F4F7E01BF
S1130270BFEFEB1ABDEFFB0AF80184E48193EE159E
S1130280FF05E1F781E089839AEA9B838C83AE01C1
S11302904F5F5F4F61E0CE018F5F9B4F0E94550916
S11302A0F80111928F01EE16FF06D1F79E012F5F20
S11302B03F4F41E061E0CE018F5F9B4F0E94D9091F
S11302C080E090E0CA5FDB4F0FB6F894DEBF0FBE4C
S11302D0CDBFDF91CF911F910F91FF90EF90DF90F1
S11302E0CF9008950F931F93CF93DF93EC018B016D
S11302F06DE770E08ED21A830983DF91CF911F914D
S11303000F910895AF92BF92CF92DF92EF92FF9236
S11303100F931F93CF93DF9300D01F921F92CDB7FB
S1130320DEB7E82EF92E83EF91E00197F1F700C0D4
S1130330000083B1816085B91E2D0F2D6DE770E03B
S11303408E2D9F2D41D2E3EFF1E03197F1F700C0FC
S113035000006FEF8E2D9F2D62D26FEF8E2D9F2D9B
S11303605ED26FEF8E2D9F2D5AD26FEF8E2D9F2D63
S113037056D26FEF8E2D9F2D52D26FEF8E2D9F2D63
S11303804ED26FEF8E2D9F2D4AD26FEF8E2D9F2D63
S113039046D26FEF8E2D9F2D42D26FEF8E2D9F2D63
S11303A03ED223B12E7F25B96FEF812F902F37D204
S11303B060E4812F902F33D260E0812F902F2FD2D1
S11303C060E0812F902F2BD260E0812F902F27D2D5
S11303D060E0812F902F23D265E9812F902F1FD2C7
S11303E0812F902F22D2812F902F1FD28F3FC9F2BD
S11303F0813009F0BFC06FEF8E2D9F2D10D268E4BD
S11304008E2D9F2D0CD260E08E2D9F2D08D260E0A2
S11304108E2D9F2D04D261E08E2D9F2D00D26AEA8D
S11304208E2D9F2DFCD167E88E2D9F2DF8D18E2D1A
S11304309F2DFBD1CE0101966C015E0196E0A90EC1
S1130440B11C812F902FF1D1F60181936F01EA1530
S1130450FB05B9F78981813009F08EC08A81811149
S11304608DC08B8181118CC08C81813009F08AC050
S11304708D818A3A09F088C06FEF812F902FCFD1F8
S113048067E7812F902FCBD160E0812F902FC7D1C8
S113049060E0812F902FC3D160E0812F902FBFD1D6
S11304A060E0812F902FBBD16FEF812F902FB7D1B8
S11304B0812F902FBAD1812F902FB7D16FEF812F39
S11304C0902FADD169E6812F902FA9D160E4812FBF
S11304D0902FA5D160E0812F902FA1D160E0812FD2
S11304E0902F9DD160E0812F902F99D16FEF812FB4
S11304F0902F95D1812F902F98D1812F902F95D126
S11305008111BACF6FEF8E2D9F2D89D16AE78E2D81
S11305109F2D85D160E08E2D9F2D81D160E08E2DA1
S11305209F2D7DD160E08E2D9F2D79D160E08E2DA1
S11305309F2D75D16FEF8E2D9F2D71D18E2D9F2DF7
S113054074D18E2D9F2D71D18E2D9F2D6ED1182F8C
S11305508E2D9F2D6AD18E2D9F2D67D18E2D9F2D8F
S113056064D116FF13C060EA7FE08E2D9F2D2CD13D
S113057081E00DC080E00BC080E009C080E007C0CE
S113058080E005C080E003C080E001C080E00F90FF
S11305900F900F900F900F90DF91CF911F910F91BB
S11305A0FF90EF90DF90CF90BF90AF900895AF92FF
S11305B0BF92CF92DF92EF92FF920F931F93CF934C
S11305C0DF9300D01F92CDB7DEB7A82EB92E498392
S11305D05A836B837C836901F82EE92E6FEF1FD158
S11305E061E58A2D9B2D1BD16C818A2D9B2D17D102
S11305F06B818A2D9B2D13D16A818A2D9B2D0FD15E
S113060069818A2D9B2D0BD16FEF8A2D9B2D07D1EC
S11306108A2D9B2D0AD18A2D9B2D07D181111BC0B8
S11306208F2D9E2D02D18F3FD9F38E3FB1F48601D9
S11306308EEFD81A8F2D9E2DF8D0F80181938F015B
S1130640EC15FD05B9F78A2D9B2DEFD08A2D9B2D36
S1130650ECD081E003C080E001C080E00F900F90F7
S11306600F900F90DF91CF911F910F91FF90EF901A
S1130670DF90CF90BF90AF900895AF92BF92CF928A
S1130680DF92EF92FF920F931F93CF93DF9300D0EB
S11306901F92CDB7DEB7A82EB92E49835A836B8338
S11306A07C836901F82EE92E6FEFB9D068E58A2DB5
S11306B09B2DB5D06C818A2D9B2DB1D06B818A2D59
S11306C09B2DADD06A818A2D9B2DA9D069818A2D5D
S11306D09B2DA5D06FEF8A2D9B2DA1D08A2D9B2D0C
S11306E0A4D08A2D9B2DA1D081115AC06FEF8A2DE1
S11306F09B2D95D06EEF8A2D9B2D91D086018EEF88
S1130700D81AF80161918F018F2D9E2D88D00C1578
S11307101D05B9F76FEF8A2D9B2D81D06FEF8A2DC0
S11307209B2D7DD08F2D9E2D80D08823D9F3853E9F
S113073009F038C08A2D9B2D78D08F2D9E2D75D031
S11307408F3FD9F76FEF8A2D9B2D69D06DE48A2DE9
S11307509B2D65D060E08A2D9B2D61D060E08A2DB1
S11307609B2D5DD060E08A2D9B2D59D060E08A2DB1
S11307709B2D55D06FEF8A2D9B2D51D08A2D9B2D0B
S113078054D08A2D9B2D51D0182F8A2D9B2D4DD0BE
S1130790982F111109C081E0992339F080E005C038
S11307A080E003C080E001C080E00F900F900F90C4
S11307B00F90DF91CF911F910F91FF90EF90DF90F9
S11307C0CF90BF90AF9008956A3F7105A9F024F4CB
S11307D06D377105B1F019C0683E83E0780739F0D0
S11307E0603A7F4091F48CB58C7F8CBD08958CB5B4
S11307F08C7F81608CBD08958CB58C7F82608CBDAC
S113080008958CB583608CBD08958CB58C7F8CBDA8
S1130810089527E024B920E52CBDD6CF08956EBDF8
S11308200DB407FEFDCF8EB508958FEF8EBD0DB4C8
S113083007FEFDCF8EB508950F931F93522F8B01A2
S11308409C010E561109210931090339114C21402B
S11308503105D0F545504430B8F520E22093C0006E
S113086028E12093C100440F4093C200553431F471
S1130870E2ECF0E020812062208307C05F3429F499
S1130880E2ECF0E0208120632083DC01CB01880FBF
S1130890991FAA1FBB1F880F991FAA1FBB1F9C016A
S11308A0AD01220F331F441F551F220F331F441F56
S11308B0551F60E074E284EF90E0FAD621503109CC
S11308C02093C4003093C5001F910F910895FC013B
S11308D071836083128208959B0140E050E0BA0165
S11308E0FC018081918163CE08950F931F93CF9370
S11308F0DF93CDB7DEB7D2500FB6F894DEBF0FBE8C
S1130900CDBF8C01BE016F5F7F4FE6DF20E030E09A
S11309100DC020FF0BC0F8014281E1E0F0E0EC0FD4
S1130920FD1FE20FF31F9081491741F02F5F3F4FE6
S11309302115F2E03F0769F781E001C080E0DE5F46
S11309400FB6F894DEBF0FBECDBFDF91CF911F91DC
S11309500F910895EF92FF920F931F93CF93DF931C
S1130960CDB7DEB7D2500FB6F894DEBF0FBECDBF01
S11309708C01E62EF42EBE016F5F7F4FADDFFE01CA
S1130980319620E030E09191992349F02F5F3F4F59
S1130990211582E03807B9F720E030E003C02115C3
S11309A0310519F48981811116C0E1E0F0E0EC0F02
S11309B0FD1FE20FF31FE082FE01E20FF31FF2823C
S11309C09E012F5F3F4F40E050E0BA01F801808163
S11309D0918153DE01C080E0DE5F0FB6F894DEBF84
S11309E00FBECDBFDF91CF911F910F91FF90EF907C
S11309F00895FF920F931F93CF93DF93CDB7DEB784
S1130A00D4500FB6F894DEBF0FBECDBF8C01F62EC6
S1130A10BE016F5F7D4F80E092E0DB01FC011D921F
S1130A203197E9F7C80158DF40E050E040FD09C0C4
S1130A30E1E0F2E0EC0FFD1FE40FF51F80818F155C
S1130A4039F04F5F5F4F4115F2E05F0779F740E0FF
S1130A50FE01319680E092E0DF019C011D9221505D
S1130A603040E1F7BE016F5F7D4F22E030E050E09F
S1130A702F3F81E038079CF4C9010297841795073A
S1130A8054F081E092E08C0F9D1F820F931FDC01D4
S1130A908C91808306C0DB018C91808302C0DB01D2
S1130AA01C922F5F3F4F6F5F7F4F31962230B2E031
S1130AB03B07F1F69E012F5F3F4F40E050E0BA0143
S1130AC0F80180819181D9DDDC5F0FB6F894DEBF37
S1130AD00FBECDBFDF91CF911F910F91FF9008956D
S1130AE00F931F93CF93DF93CDB7DEB7D2500FB6DA
S1130AF0F894DEBF0FBECDBF8C01BE016F5F7F4F88
S1130B00EBDEF801428141111AC01FC020FF0DC065
S1130B10E1E0F0E0EC0FFD1FE20FF31F9081981766
S1130B2051F02F3FF1E03F0781F02F5F3F4F211538
S1130B3092E0390759F78F5F481720F406C081E027
S1130B4061E050E0262F352FE1CFDE5F0FB6F89439
S1130B50DEBF0FBECDBFDF91CF911F910F910895DE
S1130B609B0141E050E060E070E0FC0180819181F4
S1130B701ECD0895CF92DF92EF92FF920F931F93B1
S1130B80CF93DF93CDB7DEB7D8500FB6F894DEBF5E
S1130B900FBECDBF6C01F62EFE01EF5FF94F80E072
S1130BA092E0DF019C011D9221503040E1F7BE012B
S1130BB06F5F7B4FDB01FC011D923197E9F7FE016A
S1130BC0EF5FFD4FDF019C011D9221503040E1F7A2
S1130BD0C60182DE2F2D30E021503109822F880F8B
S1130BE0880F880F821B20E030E08E5F0CC020FF4E
S1130BF00AC0E1E0F4E0EC0FFD1FE20FF31F908167
S1130C009F1101C0E82E2F5F3F4F211592E0390755
S1130C1071F74E2D50E060E070E09E012F5F3D4F74
S1130C20D6018D919C91C3DCCD5FDD4F8881C3508B
S1130C30D240882309F457C0BE016F5F7F4F80E024
S1130C4092E0FB019C01119221503040E1F7C60172
S1130C5087DF00E010E000FD24C0E1E0F0E0EC0FED
S1130C60FD1FE00FF11F9081CD5FDD4F8881C350E0
S1130C70D240981316C081E0800FE1E0F0E0EC0F61
S1130C80FD1FE80FF11D8081815080839E012F5F3D
S1130C903F4F41E050E060E070E0D6018D919C91BF
S1130CA0ECDC0F5F1F4F0115B2E01B07A1F61BC060
S1130CB04E2D50E060E070E09E012F5F394FF60149
S1130CC080819181DADC882389F0E394E112F0CF0A
S1130CD0D60112968C911297815012968C936F2D97
S1130CE0C60187DE03C017E01E0DE2CFD85F0FB642
S1130CF0F894DEBF0FBECDBFDF91CF911F910F914E
S1130D00FF90EF90DF90CF900895FF920F931F9381
S1130D10CF93DF93CDB7DEB7D2500FB6F894DEBFD2
S1130D200FBECDBF8C01F62EBE016F5F7F4F80E0FA
S1130D3092E0FB019C01119221503040E1F7C8017F
S1130D400FDF20E030E020FD09C0E1E0F0E0EC0F2F
S1130D50FD1FE20FF31F9081992349F02F5F3F4F4E
S1130D60211582E0380779F720E030E003C021152F
S1130D70310519F48981811113C0E1E0F0E0EC0F31
S1130D80FD1FE20FF31FF0829E012F5F3F4F41E0F2
S1130D9050E060E070E0F801808191816EDC01C078
S1130DA080E0DE5F0FB6F894DEBF0FBECDBFDF91EB
S1130DB0CF911F910F91FF900895EF92FF921F938F
S1130DC0CF93DF93CDB7DEB7D2500FB6F894DEBF22
S1130DD00FBECDBF7C01162FBE016F5F7F4FC0DEFB
S1130DE020E030E020FD14C0E1E0F0E0EC0FFD1F56
S1130DF0E20FF31F908191130BC081E0820FE1E0B9
S1130E00F0E0EC0FFD1FE80FF11D90819F5F9083D0
S1130E102F5F3F4F211582E0380721F79E012F5F96
S1130E203F4F41E050E060E070E0F7018081918144
S1130E3024DCDE5F0FB6F894DEBF0FBECDBFDF91BA
S1130E40CF911F91FF90EF900895AF92BF92CF92F0
S1130E50DF92EF92FF920F931F93CF93DF93CDB75F
S1130E60DEB7D2500FB6F894DEBF0FBECDBF8C01F3
S1130E70C62ED42EDC0112968C9112978F5F129697
S1130E808C93C80132DD882309F44DC0FE013196EC
S1130E9080E092E0DF019C011D9221503040E1F797
S1130EA0C982D80112968C918A83DB82EE24E39462
S1130EB0F12CEC82F801828190E00197AC01440F9F
S1130EC0551F440F551F440F551F481B590B4E0DFA
S1130ED05F1D4F5F5F4F052E000C660B770B9E0165
S1130EE02F5F3F4F80819181C8DB811108C0D801F9
S1130EF012969C911297915012969C935AC0BFEFF0
S1130F00EB1AFB0AE8E0EE16F10499F66D2DC80120
S1130F1054DF882309F44DC0D80112964C916C2DEE
S1130F20C80118DD46C0C801DBDDA82EFE013196DC
S1130F3080E092E0DF019C011D9221503040E1F7F6
S1130F40C982AA82DB822A2D30E02150310979013D
S1130F50EE0CFF1CEE0CFF1CEE0CFF1CE21AF30A55
S1130F6032E0E30EF11CBB24B394BC829E012F5FDC
S1130F703F4FA7010F2C000C660B770BD8018D9106
S1130F809C917BDB811105C0F80192819150928381
S1130F9010C0B394FFEFEF1AFF0A28E0B212E5CFB6
S1130FA06D2DC8010ADF882321F04A2D6C2DC8015C
S1130FB0D1DCDE5F0FB6F894DEBF0FBECDBFDF918C
S1130FC0CF911F910F91FF90EF90DF90CF90BF9042
S1130FD0AF9008957F928F929F92AF92BF92CF92DB
S1130FE0DF92EF92FF920F931F93CF93DF93CDB7CE
S1130FF0DEB7D6500FB6F894DEBF0FBECDBF8C015E
S1131000E62EF42EBE016F5F7B4F80E092E0DB01A1
S1131010FC011D923197E9F7C801A2DD20E030E020
S113102020FD12C0E1E0F4E0EC0FFD1FE20FF31F1E
S113103080818F1109C02C0F3D1FF901EE5FFB4F1A
S113104080818150808306C02F5F3F4F2115F2E0DD
S11310503F0731F79E012F5F3B4F41E050E060E0D6
S113106070E0D8018D919C9108DB782E811153C0DA
S113107061C020FD1AC0E1E0F2E0EC0FFD1FE20FB9
S1131080F31F80818E1111C0E1E0F2E0EC0FFD1F2F
S1131090E20FF31F818190E00197882E880C880C61
S11310A0880C881A8394839407C02F5F3F4F2115BF
S11310B0B2E03B07F1F6812CFE01319680E092E02C
S11310C0DF019C011D9221503040E1F7A12CB12C8D
S11310D0912C6501C80CD91C0D2C000CEE08FF08DE
S11310E09E012F5F3F4FB701A601D8018D919C91BE
S11310F05EDA1B829E012F5F3F4FB701A601F80104
S113110080819181BADAFFEFAF1ABF0A27E0A216F5
S1131110B104F9F60FC0BE016F5F7D4F80E092E02D
S1131120DB01FC011D923197E9F7C801D5DB20E012
S113113030E09FCF872DDA5F0FB6F894DEBF0FBE85
S1131140CDBFDF91CF911F910F91FF90EF90DF9072
S1131150CF90BF90AF909F908F907F900895AF9263
S1131160BF92CF92DF92EF92FF920F931F93CF9390
S1131170DF93CDB7DEB7D4500FB6F894DEBF0FBE01
S1131180CDBF8C01F62EBE016F5F7D4F80E092E0F3
S1131190FB019C01119221503040E1F7C801E0DCD1
S11311A0A0E0B0E0A0FD29C0E1E0F2E0EC0FFD1FFB
S11311B0EA0FFB1F8081F81220C0FE01EA0FFB1F1B
S11311C0EE5FFD4FE0801082CD01029681159240C2
S11311D0D4F4FE01EA0FFB1FED5FFD4F9E012F5F6C
S11311E03B4F81E092E08C0F9D1FA80FB91F919196
S11311F09C93E217F307D9F706C01196A11592E064
S1131200B90781F6E12C9E012F5F3D4F41E050E08C
S113121060E070E0F801808191812FDAB82E882394
S113122091F1C12CD12CA12CA601440F551F440FC0
S1131230551F440F551F4C195D094D5F5F4F052E17
S1131240000C660B770B9E012F5F3F4FF8018081E6
S11312509181ADD98B818F110DC04F2D6981C8014A
S1131260B9DEA394AE1006C0F801C280D12CFFEF02
S1131270CF1ADF0A2FEFC21AD20AF801828190E056
S11312808C159D058CF68B2DDC5F0FB6F894DEBFB4
S11312900FBECDBFDF91CF911F910F91FF90EF90C3
S11312A0DF90CF90BF90AF9008958F929F92AF92AE
S11312B0BF92CF92DF92EF92FF920F931F93CF933F
S11312C0DF93CDB7DEB7D2500FB6F894DEBF0FBEB2
S11312D0CDBF6C01062F7A01BE016F5F7F4F80E0A6
S11312E092E0FB019C01119221503040E1F7C601CC
S11312F0F3DAE0E0F0E0E0FD20C0A1E0B0E0AC0F04
S1131300BD1FAE0FBF1F8C91801317C0EC0FFD1FC4
S11313101281812F90E001974C01880C991C880C54
S1131320991C880C991C881A990A32E0830E911C26
S1131330092C000CAA08BB0808C03196E11582E00C
S1131340F807C9F6812C912C5401F70183819FEF92
S1131350980F9730D0F490E00197092E000CAA0B57
S1131360BB0B880E991EAA1EBB1E118309E010E058
S11313709701B501A401F601808191817ED9811183
S113138005C001501109A1F701C080E0DE5F0FB66E
S1131390F894DEBF0FBECDBFDF91CF911F910F91A7
S11313A0FF90EF90DF90CF90BF90AF909F908F9081
S11313B008958F929F92AF92BF92CF92DF92EF9255
S11313C0FF920F931F93CF93DF93CDB7DEB7D25025
S11313D00FB6F894DEBF0FBECDBF7C01162F042FCD
S11313E06901BE016F5F7F4F80E092E0FB019C01C9
S11313F0119221503040E1F7C7016EDAE0E0F0E0ED
S1131400E0FD1FC0A1E0B0E0AC0FBD1FAE0FBF1FD9
S11314108C91801316C0EC0FFD1F828190E0019720
S11314204C01880C991C880C991C880C991C881AEE
S1131430990A32E0830E911C092C000CAA08BB08FF
S113144008C03196E11582E0F807D1F6812C912C81
S113145054018FEF810F8730D0F4812F90E00197F2
S1131460092E000CAA0BBB0B880E991EAA1EBB1ECC
S113147009E010E09601B501A401F7018081918192
S113148096D8811106C001501109A1F703C080E06C
S113149001C081E0DE5F0FB6F894DEBF0FBECDBFA2
S11314A0DF91CF911F910F91FF90EF90DF90CF903C
S11314B0BF90AF909F908F9008954F925F926F92DC
S11314C07F92AF92BF92CF92DF92EF92FF920F93EF
S11314D01F93CF93DF93CDB7DEB7D4500FB6F894F4
S11314E0DEBF0FBECDBF8C01F62EA42EB22EBE01E0
S11314F06F5F7D4FF1D9FE01EF5FFD4F80E090E01B
S113150021912F1113C0E1E0F2E0EC0FFD1FE80F71
S1131510F91FF180A0829E012F5F3D4F40E050E013
S1131520BA01F80180819181A8D807C0019681157C
S113153022E0920729F7FF24F3948F2D90E001977E
S11315406C01CC0CDD1CCC0CDD1CCC0CDD1CC81AD5
S1131550D90A32E0C30ED11C0D2C000CEE08FF0892
S11315609E012F5F3F4FB701A601F8018081918151
S11315701ED87B80BE016F5F7D4FC801F1DAE0E0C9
S1131580F0E0E0FD17C0A1E0B2E0AC0FBD1FAE0F6C
S1131590BF1F8C9187110EC03196A1E0B2E0AC0F51
S11315A0BD1FAE0FBF1F8C91882349F0FD018150F0
S11315B0808305C03196E11532E0F30711F7E0E0CE
S11315C0F0E0E0FD1FC0A1E0B2E0AC0FBD1FAE0F24
S11315D0BF1F8C918B1116C0319681E092E08C0F65
S11315E09D1FE80FF91F80818F5F80839E012F5F0D
S11315F03D4F41E050E060E070E0F801808191816E
S11316003CD826C03196E11522E0F207D1F628C075
S11316109E012F5F3F4FB701A601F80180819181A0
S11316200E94D702A982BB829E012F5F3F4FB70160
S1131630A601F8018081918120D8FFEFCF1ADF0A3B
S1131640EF0AFF0AC414D504E604F70409F71AC024
S11316502601370127E0420E511C611C711CD8CFB2
S11316609E012F5F3D4F41E050E060E070E0F801E3
S11316708081918102D86B2DC80147DB6B2DC80195
S11316809CDBE6CF80E0DC5F0FB6F894DEBF0FBED4
S1131690CDBFDF91CF911F910F91FF90EF90DF901D
S11316A0CF90BF90AF907F906F905F904F900895D0
S11316B0A1E21A2EAA1BBB1BFD010DC0AA1FBB1F52
S11316C0EE1FFF1FA217B307E407F50720F0A21BC4
S11316D0B30BE40BF50B661F771F881F991F1A9431
S11316E069F760957095809590959B01AC01BD015B
S10B16F0CF010895F894FFCF27
S9030000FC
