:100000000C9472000C9494000C9494000C94940042
:100010000C9494000C9494000C9494000C94940010
:100020000C9494000C9494000C9494000C94940000
:100030000C9494000C9494000C9494000C949400F0
:100040000C9494000C9494000C9494000C949400E0
:100050000C9494000C9494000C9494000C949400D0
:100060000C9494000C9438010C9494000C9494001B
:100070000C9494000C9494000C9494000C949400B0
:100080000C9494000C9494000C9494000C949400A0
:100090000C9494000C9494000C9494000C94940090
:1000A0000C9494000C9494000C9494000C94940080
:1000B0000C9494000C9494000C9494000C94940070
:1000C0000C9494000C9494000C9494000C94940060
:1000D0000C9494000C9494000C9494000C94940050
:1000E0000C94940011241FBECFEFD1E2DEBFCDBF30
:1000F00000E00CBF12E0A0E0B2E0E0E0F4E000E0DD
:100100000BBF02C007900D92A830B107D9F71BBEF4
:1001100012E0A8E0B2E001C01D92A830B107E1F7FB
:100120000E9477010C94FE010C9400000F93DB01F8
:10013000CA018E569040A040B040833931EC9307FD
:1001400031E0A30730E0B30798F5293088F5253072
:1001500078F180E28093C00088E98093C100255047
:10016000220F2093C200440F551F661F771F440FB4
:10017000551F661F771F9A01AB01220F331F441FC3
:10018000551F220F331F441F551F60E074E284EF98
:1001900090E00E949701DA01C9010197A109B10914
:1001A0008093C400892F9A2FAB2FBB278093C50063
:1001B000053431F4E2ECF0E080818062808307C096
:1001C0000F3429F4E2ECF0E08081806380830F91AA
:1001D00008958091C00080780895E0ECF0E080817F
:1001E0008823ECF78091C6000895E0ECF0E0808170
:1001F00085FFFDCF6093C60008950F931F93CF93A3
:10020000DF938C01EB016881662339F02196C801E8
:100210000E94F50069916623D1F7DF91CF911F917C
:100220000F9108950F931F93CF93DF93CDB7DEB750
:1002300027970FB6F894DEBF0FBECDBF8C01CB0160
:10024000BE016F5F7F4F4AE050E00E94B901C801D4
:10025000BE016F5F7F4F0E94FD0027960FB6F89496
:10026000DEBF0FBECDBFDF91CF911F910F910895DB
:100270001F920F920FB60F920BB60F9211240F938D
:100280002F933F934F935F936F937F938F939F939E
:10029000AF93BF93EF93FF93CF93DF930F92CDB7BD
:1002A000DEB7CE01019640E855E260E070E028E05C
:1002B0000EE40E949600CE01019666E60E94F500CB
:1002C0000F90DF91CF91FF91EF91BF91AF919F91EF
:1002D0008F917F916F915F914F913F912F910F91EE
:1002E0000F900BBE0F900FBE0F901F901895CF93DD
:1002F000DF930F92CDB7DEB7CE01019640E855E20D
:1003000060E070E028E00EE40E94960000E012E059
:10031000CE01019664E40E94F500CE010196B80179
:100320000E94FD00CE0101960E94ED00F1CFA1E2F6
:100330001A2EAA1BBB1BFD010DC0AA1FBB1FEE1F5F
:10034000FF1FA217B307E407F50720F0A21BB30BAA
:10035000E40BF50B661F771F881F991F1A9469F726
:1003600060957095809590959B01AC01BD01CF0182
:100370000895FB019F01E8944230C4F04532B4F483
:100380004A3029F497FB1EF4909581959F4F642F76
:1003900077270E94EA01805D8A330CF0895D8193A2
:1003A000CB010097A1F716F45DE251931082C901C9
:1003B0000C94DA01DC01FC01672F71917723E1F7DE
:1003C000329704C07C916D9370836291AE17BF0722
:1003D000C8F30895AA1BBB1B51E107C0AA1FBB1F8E
:1003E000A617B70710F0A61BB70B881F991F5A95C1
:1003F000A9F780959095BC01CD010895F894FFCFA1
:08040000204675636B2000002B
:00000001FF
