:100000000C9472000C9494000C9494000C94940042
:100010000C9494000C9494000C9494000C94940010
:100020000C9494000C9494000C9494000C94940000
:100030000C9494000C9494000C9494000C949400F0
:100040000C9494000C9494000C9494000C949400E0
:100050000C9494000C9494000C9494000C949400D0
:100060000C9494000C9494000C9494000C949400C0
:100070000C9494000C9494000C9494000C949400B0
:100080000C9494000C9494000C9494000C949400A0
:100090000C9494000C9494000C9494000C94940090
:1000A0000C9494000C9494000C9494000C94940080
:1000B0000C9494000C9494000C9494000C94940070
:1000C0000C9494000C9494000C9494000C94940060
:1000D0000C9494000C9494000C9494000C94940050
:1000E0000C94940011241FBECFEFD1E2DEBFCDBF30
:1000F00000E00CBF12E0A0E0B2E0E8EFFAE000E0C0
:100100000BBF02C007900D92A030B107D9F71BBEFC
:1001100012E0A0E0B2E001C01D92A030B107E1F70B
:100120000E9496000C947A050C940000EF92FF92C6
:100130000F931F93CF93DF93CDB7DEB7C350D44057
:100140000FB6F894DEBF0FBECDBF60E875E280E069
:1001500090E048E020E00E948104CE01019660EA30
:100160007FE00E9418018FE39CE90197F1F700C03E
:100170000000CE0101960E946D010E94DE04FE0186
:100180003496CE018C5F9D4F2FEE2193E817F9072F
:10019000E1F78B850E94DE04CE0101964FEF5FEF01
:1001A000BA019E012C5F3F4F0E947D03882321F0FE
:1001B0008CEC0E94DE0403C08BEA0E94DE048BEB11
:1001C0000E94DE048BEB0E94DE04CE0101964FEF0D
:1001D0005FEFBA019E012C5F3D4F0E94050388230B
:1001E000A1F08E010C5F1D4F0F2EF4E0EF2EF4E016
:1001F000FF2EF02DEC0EFD1EF80181918F010E9463
:10020000DE040E151F05C1F703C089EE0E94DE044F
:1002100080E090E0CD5FDB4F0FB6F894DEBF0FBEFD
:10022000CDBFDF91CF911F910F91FF90EF90089577
:100230000F931F93CF93DF93EC018B016DE770E079
:100240000E946D041A830983DF91CF911F910F9152
:100250000895EF92FF920F931F93CF93DF9300D0F7
:100260000F92CDB7DEB7182FE92EF62E29833A83E9
:100270004B835C836FEF0E9474046F2D6064812F49
:100280009E2D0E947404812F9E2D69810E9474040A
:10029000812F9E2D6A810E947404812F9E2D6C8176
:1002A0000E947404812F9E2D6D810E947404812F01
:1002B0009E2D602F0E9474040F900F900F900F904E
:1002C000DF91CF911F910F91FF90EF9008950E94C1
:1002D0007A0408950E9474040895AF92BF92CF9259
:1002E000DF92EF92FF920F931F93CF93DF9300D093
:1002F0000F920F92CDB7DEB7B82EA92E83EF91E003
:100300000197F1F700C0000083B1816085B9CB2C63
:10031000DA2C8B2D9A2D6DE770E00E944504E3EFF7
:10032000F1E03197F1F700C000008B2D9A2D6FEFAF
:100330000E9474048B2D9A2D6FEF0E9474048B2DF4
:100340009A2D6FEF0E9474048B2D9A2D6FEF0E94EF
:1003500074048B2D9A2D6FEF0E9474048B2D9A2DAF
:100360006FEF0E9474048B2D9A2D6FEF0E9474041E
:100370008B2D9A2D6FEF0E9474048B2D9A2D6FEFA9
:100380000E9474048B2D9A2D6FEF0E94740483B128
:100390008E7F85B98C2D9D2D6FEF0E9474048C2D5E
:1003A0009D2D60E40E9474048C2D9D2D60E00E94C0
:1003B00074048C2D9D2D60E00E9474048C2D9D2D65
:1003C00060E00E9474048C2D9D2D60E00E947404F6
:1003D0008C2D9D2D65E90E9474048C2D9D2D0E940D
:1003E0007A048C2D9D2D0E947A048F3F81F28130FA
:1003F00009F0EEC08B2D9A2D6FEF0E9474048B2DA7
:100400009A2D68E40E9474048B2D9A2D60E00E945E
:1004100074048B2D9A2D60E00E9474048B2D9A2D0C
:1004200061E00E9474048B2D9A2D6AEA0E94740484
:100430008B2D9A2D67E80E9474048B2D9A2D0E94B3
:100440007A048E010F5F1F4F0F2EF6E0EF2EFF2470
:10045000F02DEC0EFD1E8C2D9D2D0E947A04F801CE
:1004600081938F01EE15FF05B1F78981813009F085
:10047000B1C08A81882309F0AFC08B81882309F03D
:10048000ADC08C81813009F0ABC08D818A3A09F012
:10049000A9C08C2D9D2D6FEF0E9474048C2D9D2D75
:1004A00067E70E9474048C2D9D2D60E00E94740407
:1004B0008C2D9D2D60E00E9474048C2D9D2D60E09C
:1004C0000E9474048C2D9D2D60E00E9474048C2D7C
:1004D0009D2D6FEF0E9474048C2D9D2D0E947A0437
:1004E0008C2D9D2D0E947A048C2D9D2D6FEF0E94E6
:1004F00074048C2D9D2D69E60E9474048C2D9D2D15
:1005000060E40E9474048C2D9D2D60E00E947404B0
:100510008C2D9D2D60E00E9474048C2D9D2D60E03B
:100520000E9474048C2D9D2D6FEF0E9474048C2DFD
:100530009D2D0E947A048C2D9D2D0E947A04882383
:1005400009F0A7CF8B2D9A2D6FEF0E9474048B2D8D
:100550009A2D6AE70E9474048B2D9A2D60E00E9408
:1005600074048B2D9A2D60E00E9474048B2D9A2DBB
:1005700060E00E9474048B2D9A2D60E00E94740448
:100580008B2D9A2D6FEF0E9474048B2D9A2D0E9453
:100590007A048B2D9A2D0E947A048B2D9A2D0E941D
:1005A0007A04082F8B2D9A2D0E947A048B2D9A2D78
:1005B0000E947A048B2D9A2D0E947A0406FF14C0A3
:1005C0008B2D9A2D60EA7FE00E94450481E00DC0EA
:1005D00080E00BC080E009C080E007C080E005C07B
:1005E00080E003C080E001C080E00F900F900F908A
:1005F0000F900F90DF91CF911F910F91FF90EF908F
:10060000DF90CF90BF90AF900895AF92BF92CF92FE
:10061000DF92EF92FF920F931F93CF93DF9300D05F
:100620000F92CDB7DEB7B82EA92E49835A836B83BC
:100630007C83022F132FC82ED92E6FEF0E947404D3
:100640008B2D9A2D61E50E9474048B2D9A2D6C815F
:100650000E9474048B2D9A2D6B810E9474048B2D43
:100660009A2D6A810E9474048B2D9A2D69810E94B3
:1006700074048B2D9A2D6FEF0E9474048B2D9A2D8C
:100680000E947A048B2D9A2D0E947A04882319F5F2
:100690008C2D9D2D0E947A048F3FD1F38E3FE9F47B
:1006A000E02EF12E00E010E08C2D9D2D0E947A04AA
:1006B000F70181937F010F5F1F4FF2E000301F07AA
:1006C00099F78B2D9A2D0E947A048B2D9A2D0E94DA
:1006D0007A0481E003C080E001C080E00F900F90B9
:1006E0000F900F90DF91CF911F910F91FF90EF909E
:1006F000DF90CF90BF90AF900895AF92BF92CF920E
:10070000DF92EF92FF920F931F93CF93DF9300D06E
:100710000F92CDB7DEB7B82EA92E49835A836B83CB
:100720007C83022F132FC82ED92E6FEF0E947404E2
:100730008B2D9A2D68E50E9474048B2D9A2D6C8167
:100740000E9474048B2D9A2D6B810E9474048B2D52
:100750009A2D6A810E9474048B2D9A2D69810E94C2
:1007600074048B2D9A2D6FEF0E9474048B2D9A2D9B
:100770000E947A048B2D9A2D0E947A04882309F016
:1007800070C08B2D9A2D6FEF0E9474048B2D9A2DC3
:100790006EEF0E947404E02EF12E00E010E0F701ED
:1007A00061917F018C2D9D2D0E9474040F5F1F4F5E
:1007B000F2E000301F0799F78B2D9A2D6FEF0E9402
:1007C00074048B2D9A2D6FEF0E9474048C2D9D2D37
:1007D0000E947A048823D1F3853E09F044C08B2D12
:1007E0009A2D0E947A048C2D9D2D0E947A048F3FB1
:1007F000D1F78B2D9A2D6FEF0E9474048B2D9A2DBB
:100800006DE40E9474048B2D9A2D60E00E947404A4
:100810008B2D9A2D60E00E9474048B2D9A2D60E040
:100820000E9474048B2D9A2D60E00E9474048B2D1D
:100830009A2D6FEF0E9474048B2D9A2D0E947A04DA
:100840008B2D9A2D0E947A04182F8B2D9A2D0E94A1
:100850007A04982F112349F481E0992339F080E03C
:1008600005C080E003C080E001C080E00F900F90E1
:100870000F900F90DF91CF911F910F91FF90EF900C
:10088000DF90CF90BF90AF9008956A3F7105C1F09F
:100890006B3F710524F46D377105D9F416C083E000
:1008A000683E780741F08FE0603A780791F48CB5A4
:1008B0008C7F8CBD08958CB58C7F81608CBD089534
:1008C0008CB58C7F82608CBD08958CB583608CBDA7
:1008D00008958CB58C7F8CBD089527E024B920E560
:1008E0002CBD0E94450408956EBD0DB407FEFDCFDA
:1008F0008EB508958FEF8EBD0DB407FEFDCF8EB57A
:1009000008950F931F93DC01CB01522F8C019D01A1
:100910000E56104020403040033961EC160761E06C
:10092000260760E03607D8F54530C8F14930B8F5FC
:1009300020E22093C00028E12093C1004550440FDD
:100940004093C200553431F4E2ECF0E020812062A3
:10095000208307C05F3429F4E2ECF0E020812063BB
:100960002083880F991FAA1FBB1F880F991FAA1FDA
:10097000BB1F9C01AD01220F331F441F551F220FC7
:10098000331F441F551F60E074E284EF90E00E9423
:100990001305215030402093C4003093C5001F91AF
:1009A0000F9108958091C00080780895E0ECF0E008
:1009B00080818823ECF78091C6000895E0ECF0E098
:1009C000908195FFFDCF8093C6000895CF93DF936C
:1009D000EC018881882331F021960E94DE04899100
:1009E0008823D9F7DF91CF910895CF93DF93CDB7C7
:1009F000DEB727970FB6F894DEBF0FBECDBFBE019E
:100A00006F5F7F4F4AE050E00E943505CE010196AE
:100A10000E94E60427960FB6F894DEBF0FBECDBF46
:100A2000DF91CF910895A1E21A2EAA1BBB1BFD01F5
:100A30000DC0AA1FBB1FEE1FFF1FA217B307E407BD
:100A4000F50720F0A21BB30BE40BF50B661F771F15
:100A5000881F991F1A9469F76095709580959095F5
:100A60009B01AC01BD01CF010895FB019F01E894FA
:100A70004230C4F04532B4F44A3029F497FB1EF4F6
:100A8000909581959F4F642F77270E946605805D22
:100A90008A330CF0895D8193CB010097A1F716F49E
:100AA0005DE251931082C9010C945605DC01FC01F2
:100AB000672F71917723E1F7329704C07C916D9392
:100AC00070836291AE17BF07C8F30895AA1BBB1BC2
:100AD00051E107C0AA1FBB1FA617B70710F0A61B3E
:100AE000B70B881F991F5A95A9F780959095BC015F
:080AF000CD010895F894FFCF39
:00000001FF
