S01700005265616C2D54696D652D436C6F636B2E73726563B4
S11300000C9472000C9494000C9494000C9494003E
S11300100C9494000C9494000C9494000C9494000C
S11300200C9494000C9494000C9494000C949400FC
S11300300C9494000C9494000C9494000C949400EC
S11300400C9494000C9494000C9494000C949400DC
S11300500C9494000C9494000C9494000C949400CC
S11300600C9494000C9494000C9494000C949400BC
S11300700C9494000C9494000C9494000C949400AC
S11300800C9494000C9494000C9494000C9494009C
S11300900C9494000C9494000C9494000C9494008C
S11300A00C9494000C9494000C9494000C9494007C
S11300B00C9494000C9494000C9494000C9494006C
S11300C00C9494000C9494000C9494000C9494005C
S11300D00C9494000C9494000C9494000C9494004C
S11300E00C94940011241FBECFEFD1E2DEBFCDBF2C
S11300F000E00CBF12E0A0E0B2E0E0EEFAE000E0C5
S11301000BBF02C007900D92A030B107D9F71BBEF8
S113011012E0A0E0B2E001C01D92A030B107E1F707
S11301200E94E0000C946E050C9400006623F1F02C
S113013081E04039580739F481E08093B90083E0C5
S11301408093B80010C04436510539F481E080939F
S1130150B90082E18093B80006C083E08093B900BF
S113016084E18093B80084E08093BC00089584EA1D
S11301708093BC00ECEBF0E080818823ECF70895D9
S113018084E98093BC0008956093BB0084E8809365
S1130190BC00ECEBF0E080818823ECF70895662343
S11301A021F484EC8093BC0003C084E88093BC00F9
S11301B0ECEBF0E080818823ECF78091BB0008959C
S11301C0CF93DF930F920F92CDB7DEB760E875E25D
S11301D080E090E048E020E00E946904CE010196AE
S11301E060ED40E951E00E946102CE0101966EE0AB
S11301F045E220E00E94E902CE01019662E145E079
S113020020E103E00E94A6028FEF93ECA9E0815065
S11302109040A040E1F700C000008FEF93ECA9E00C
S113022081509040A040E1F700C000008FEF93ECB4
S1130230A9E081509040A040E1F700C000008FEF9A
S113024093ECA9E081509040A040E1F700C0000089
S11302508FEF93ECA9E081509040A040E1F700C0FB
S11302600000CE0101960E9435030E94C6048FEF60
S113027093ECA9E081509040A040E1F700C0000059
S11302808FEF93ECA9E081509040A040E1F700C0CB
S113029000008FEF93ECA9E081509040A040E1F77B
S11302A000C000008FEF93ECA9E081509040A04083
S11302B0E1F700C00000CE0101960E9468030E948D
S11302C0C6048FEF93ECA9E081509040A040E1F781
S11302D000C000008FEF93ECA9E081509040A04053
S11302E0E1F700C000008FEF93ECA9E0815090404B
S11302F0A040E1F700C000008FEF93ECA9E081502B
S11303009040A040E1F700C00000CE0101960E9499
S11303109B030E94C6048FEF93ECA9E081509040A8
S1130320A040E1F700C000008FEF93ECA9E08150FA
S11303309040A040E1F700C000008FEF93ECA9E0EB
S113034081509040A040E1F700C000008FEF93EC93
S1130350A9E081509040A040E1F700C00000CE0128
S113036001960E946F020E94C6048FEF93ECA9E0ED
S113037081509040A040E1F700C000008FEF93EC63
S1130380A9E081509040A040E1F700C000008FEF49
S113039093ECA9E081509040A040E1F700C0000038
S11303A08FEF93ECA9E081509040A040E1F700C0AA
S11303B00000CE0101960E9434040E94C6048FEF0F
S11303C093ECA9E081509040A040E1F700C0000008
S11303D08FEF93ECA9E081509040A040E1F700C07A
S11303E000008FEF93ECA9E081509040A040E1F72A
S11303F000C000008FEF93ECA9E081509040A04032
S1130400E1F700C00000CE0101960E9401040E94A1
S1130410C6048FEF93ECA9E081509040A040E1F72F
S113042000C000008FEF93ECA9E081509040A04001
S1130430E1F700C000008FEF93ECA9E081509040F9
S1130440A040E1F700C000008FEF93ECA9E08150D9
S11304509040A040E1F700C000008FEF93ECA9E0CA
S113046081509040A040E1F700C00000CE01019609
S11304700E94CE030E94C6048FEF93ECA9E0815042
S11304809040A040E1F700C000008FEF93ECA9E09A
S113049081509040A040E1F700C000008FEF93EC42
S11304A0A9E081509040A040E1F700C000008FEF28
S11304B093ECA9E081509040A040E1F700C0000017
S11304C0D0CE1F93CF93DF93EC01162F019661E0FA
S11304D00E9496001883DF91CF911F9108950F9386
S11304E01F93CF93DF938C01EC012196CE010E94E0
S11304F0B700F80160816E7FCE010E94C400CE0176
S113050063E00E94C400CE010E94C000CE010E949C
S1130510B700F80160816160CE010E94C400CE0181
S113052061E00E94CF00082FCE010E94C000802FFE
S113053090E0DF91CF911F910F910895862F6AE08B
S11305400E94FB048295807F890F0895CF92DF92E9
S1130550EF92FF920F931F93CF93DF937C01162F9B
S1130560D42EC22EEC012196CE010E94B700F701D1
S113057060816E7FCE010E94C400CE0163E00E94C0
S1130580C400CE01602F0E94C400C701612F0E94E5
S11305909E02682FCE010E94C400C7016D2D0E94E7
S11305A09E02682FCE010E94C400C7016C2D0E94D8
S11305B09E02682FCE010E94C400CE010E94C0009A
S11305C0DF91CF911F910F91FF90EF90DF90CF902B
S11305D00895DF92EF92FF920F931F93CF93DF93CF
S11305E08C01F62ED42EE22EEC012196CE010E942F
S11305F0B700F80160816E7FCE010E94C400CE0175
S113060060E00E94C400C8016E2D0E949E02682F03
S1130610CE010E94C400C8016D2D0E949E02682F65
S1130620CE010E94C400C8016F2D0E949E02682F53
S11306306064CE010E94C400CE010E94C000DF911C
S1130640CF911F910F91FF90EF90DF900895262F87
S11306502F7062956F70660F862F880F880F680F52
S1130660862F90E0820F911D0895FF920F931F93A0
S1130670CF93DF938C01EC012196CE010E94B70049
S1130680F80160816E7FCE010E94C400CE0166E055
S11306900E94C400CE010E94C000CE010E94B70097
S11306A0F80160816160CE010E94C400CE0161E066
S11306B00E94CF00F82ECE010E94C000C8016F2D09
S11306C00E942703DF91CF911F910F91FF9008950E
S11306D0FF920F931F93CF93DF938C01EC0121962C
S11306E0CE010E94B700F80160816E7FCE010E94A6
S11306F0C400CE0165E00E94C400CE010E94C00087
S1130700CE010E94B700F80160816160CE010E94B1
S1130710C400CE0161E00E94CF00F82ECE010E94F9
S1130720C000C8016F2D0E942703DF91CF911F9154
S11307300F91FF900895FF920F931F93CF93DF9330
S11307408C01EC012196CE010E94B700F801608172
S11307506E7FCE010E94C400CE0164E00E94C400FA
S1130760CE010E94C000CE010E94B700F801608152
S11307706160CE010E94C400CE0161E00E94CF00FE
S1130780F82ECE010E94C000C8016F2D0E942703DD
S1130790DF91CF911F910F91FF900895FF920F93D6
S11307A01F93CF93DF938C01EC012196CE010E941D
S11307B0B700F80160816E7FCE010E94C400CE01B3
S11307C060E00E94C400CE010E94C000CE010E94DD
S11307D0B700F80160816160CE010E94C400CE01BF
S11307E061E00E94CF00F82ECE010E94C000C80133
S11307F06F2D0E942703DF91CF911F910F91FF90DE
S11308000895FF920F931F93CF93DF938C01EC0114
S11308102196CE010E94B700F80160816E7FCE015F
S11308200E94C400CE0161E00E94C400CE010E9477
S1130830C000CE010E94B700F80160816160CE0162
S11308400E94C400CE0161E00E94CF00F82ECE01C8
S11308500E94C000C8016F2D0E942703DF91CF9131
S11308601F910F91FF900895EF92FF920F931F93A2
S1130870CF937C018C010F5F1F4FC8010E94B7000A
S1130880F70160816E7FC8010E94C400C80162E064
S11308900E94C400C8010E94C000C8010E94B700A1
S11308A0F70160816160C8010E94C400C80161E071
S11308B00E94CF00C82FC8010E94C0006C2F6F7B1C
S11308C0C7010E942703CF911F910F91FF90EF90D2
S11308D008950F931F93DC01CB01522F8C019D01CE
S11308E00E56104020403040033961EC160761E099
S11308F0260760E03607D8F54530C8F14930B8F529
S113090020E22093C00028E12093C1004550440F09
S11309104093C200553431F4E2ECF0E020812062CF
S1130920208307C05F3429F4E2ECF0E020812063E7
S11309302083880F991FAA1FBB1F880F991FAA1F06
S1130940BB1F9C01AD01220F331F441F551F220FF3
S1130950331F441F551F60E074E284EF90E00E944F
S11309600705215030402093C4003093C5001F91E7
S11309700F9108958091C00080780895E0ECF0E034
S113098080818823ECF78091C6000895E0ECF0E0C4
S1130990908195FFFDCF8093C6000895CF93DF9398
S11309A0EC018881882331F021960E94C604899144
S11309B08823D9F7DF91CF910895CF93DF93CDB7F3
S11309C0DEB727970FB6F894DEBF0FBECDBFBE01CA
S11309D06F5F7F4F4AE050E00E942905CE010196E7
S11309E00E94CE0427960FB6F894DEBF0FBECDBF8B
S11309F0DF91CF910895991B79E004C0991F961750
S1130A0008F0961B881F7A95C9F780950895A1E28E
S1130A101A2EAA1BBB1BFD010DC0AA1FBB1FEE1F74
S1130A20FF1FA217B307E407F50720F0A21BB30BBF
S1130A30E40BF50B661F771F881F991F1A9469F73B
S1130A4060957095809590959B01AC01BD01CF0197
S1130A500895FB019F01E8944230C4F04532B4F498
S1130A604A3029F497FB1EF4909581959F4F642F8B
S1130A7077270E945A05805D8A330CF0895D819343
S1130A80CB010097A1F716F45DE251931082C901DE
S1130A900C944A05DC01FC01672F71917723E1F77F
S1130AA0329704C07C916D9370836291AE17BF0737
S1130AB0C8F30895AA1BBB1B51E107C0AA1FBB1FA3
S1130AC0A617B70710F0A61BB70B881F991F5A95D6
S1130AD0A9F780959095BC01CD010895F894FFCFB6
S9030000FC
