S010000073696D756C6174652E73726563B0
S11300007CC000009DC000009BC0000099C100009E
S1130010C1C1000095C0000093C0000091C0000061
S11300208FC000008DC000008BC0000089C000009C
S113003087C0000085C0000083C0000029C2000002
S11300407FC000007DC000007BC0000079C00000BC
S113005077C0000075C0000073C00000C5C1000077
S11300606FC0000044C100006BC0000069C0000004
S113007067C0000065C0000063C0000061C00000EC
S11300805FC000005DC000005BC00000D7C100007D
S113009057C0000055C0000053C0000051C000000C
S11300A04FC000004DC000004BC0000049C000001C
S11300B047C0000045C0000043C0000041C000002C
S11300C03FC000003DC000003BC0000039C000003C
S11300D037C0000035C0000033C0000031C000004C
S11300E02FC000006A0372037903FB0487039E0395
S11300F00A043C046A04A204720211241FBECFEF56
S1130100D1E2DEBFCDBF00E00CBF22E0A0E0B2E050
S113011001C01D92A333B207E1F710E0CDE7D0E0B0
S113012000E006C021970109802FFE010E94C01142
S1130130CC37D10780E00807A9F74DD00C94C8113B
S11301405FCF6623F1F0403981E0580739F481E04C
S11301508093B90083E08093B80010C04436510501
S113016039F481E08093B90082E18093B80006C03D
S113017083E08093B90084E18093B80084E08093A5
S1130180BC00089584EA8093BC00ECEBF0E080812D
S11301908823ECF7089584E98093BC000895609364
S11301A0BB0084E88093BC00ECEBF0E08081882302
S11301B0ECF70895611104C084EC8093BC0003C083
S11301C084E88093BC00ECEBF0E080818823ECF7BA
S11301D08091BB0008959F92AF92BF92CF92DF921D
S11301E0EF92FF920F931F93CF93DF93CDB7DEB7B8
S11301F0D4500FB6F894DEBF0FBECDBF809103027A
S1130200813021F483E092E010D45DC08E010F5F51
S11302101D4F80E092E0D801FC011D923197E9F76F
S1130220FE013196DF019C011D9221503040E1F71F
S11302308AE292E00E94200B90E090930202809365
S113024001028DE292E00E94A60B80930002B801A5
S11302508AE292E072D46E013FEFC31A3BEFD30AF5
S113026099249394CE5FDD4F8881C250D24080FDA3
S113027025C09E012F5F3F4FD8014C916091000231
S11302808AE292E00E949F09EE80F12C8DE292E0D6
S11302900E94310BE816F90689F4EF80F12C8DE207
S11302A092E00E946C0BE816F90641F49886492DF9
S11302B0F80160818FE092E00E94AC0D0F5F1F4F48
S11302C00C151D0579F680E090E0DC5F0FB6F8941C
S11302D0DEBF0FBECDBFDF91CF911F910F91FF9075
S11302E0EF90DF90CF90BF90AF909F9008951F92B2
S11302F00F920FB60F9211240BB60F922F933F93C8
S11303004F935F936F937F938F939F93AF93BF9319
S1130310EF93FF9383E092E0A2D1FF91EF91BF911D
S1130320AF919F918F917F916F915F914F913F9189
S11303302F910F900BBE0F900FBE0F901F9018952A
S11303401F920F920FB60F9211240BB60F922F9398
S11303503F934F935F936F937F938F939F93AF9349
S1130360BF93EF93FF938FE092E00E94030EFF91FF
S1130370EF91BF91AF919F918F917F916F915F9119
S11303804F913F912F910F900BBE0F900FBE0F9086
S11303901F9018951F920F920FB60F9211240BB64F
S11303A00F922F933F934F935F936F937F938F930A
S11303B09F93AF93BF93EF93FF938FE092E00E94DC
S11303C01A0EFF91EF91BF91AF919F918F917F9101
S11303D06F915F914F913F912F910F900BBE0F90B2
S11303E00FBE0F901F9018951F920F920FB60F9289
S11303F011240BB60F922F933F934F935F936F93F8
S11304007F938F939F93AF93BF93EF93FF938FE06B
S113041092E00E94310EFF91EF91BF91AF919F91B5
S11304208F917F916F915F914F913F912F910F9099
S11304300BBE0F900FBE0F901F9018951F920F9236
S11304400FB60F9211240BB60F922F933F934F9335
S11304505F936F937F938F939F93AF93BF93EF9328
S1130460FF938FE092E00E94340EFF91EF91BF91D1
S1130470AF919F918F917F916F915F914F913F9138
S11304802F910F900BBE0F900FBE0F901F901895D9
S11304901F920F920FB60F9211240BB60F922F9347
S11304A03F934F935F936F937F938F939F93AF93F8
S11304B0BF93EF93FF938FE092E00E94380EFF9179
S11304C0EF91BF91AF919F918F917F916F915F91C8
S11304D04F913F912F910F900BBE0F900FBE0F9035
S11304E01F9018950F931F9305E428E040E051EE08
S11304F060E070E082E392E0BDD260EA7FE08FE2E8
S113050092E00E94D50B40E951E060ED8DE292E06B
S11305100E94230B6FE272E08AE292E009D340E08A
S113052060E08FE092E00E942A0D0FE012E02DE2DD
S113053032E042E352E06AE272E083E092E003D008
S11305401F910F9108950F931F93FC0156834583C8
S11305503283218374836383108707831F910F91F0
S113056008950F931F93CF93DF938C01EB01FC014C
S113057085819681CDD28883F80185819681C8D200
S113058089839881903F29F491E0803F19F090E0AD
S113059001C090E0892FDF91CF911F910F910895B1
S11305A0CF93DF93EC01DDDF882341F08D819E81C1
S11305B0AFD29FEF980F9A3010F402C001C080E0D0
S11305C0DF91CF910895BF92CF92DF92EF92FF9285
S11305D00F931F93CF93DF937C018B01FB019B014E
S11305E03E5F1192E217F307E1F7C0E0D0E0C12CBF
S11305F0D12C0F2EFFE0BF2EF02DF70185819681BF
S113060087D28F30B1F4F7018581968181D28F3002
S113061019F48C2D9D2D19C0F801EC0FFD1FB0822B
S11306202196F801EC0FFD1F8083F2E0CF0ED11C60
S113063007C0F801EC0FFD1F80838FEFC81AD80A9A
S11306402196C115E2E0DE07C4F2DF91CF911F913C
S11306500F91FF90EF90DF90CF90BF9008953F925D
S11306604F925F926F927F928F929F92AF92BF92BE
S1130670CF92DF92EF92FF920F931F93CF93DF936A
S1130680CDB7DEB7C250D4400FB6F894DEBF0FBE6C
S1130690CDBF6C0111B88E010F5F1D4F7E012FEF8E
S11306A0E21A2BEFF20AF8011192EE15FF05E1F7B9
S11306B0BE016F5F7B4FC60173DF90E0FC01319791
S11306C0EA30F10508F097C18827EE58FF4F8F4FA5
S11306D00C94C01181E0F60180836FE085819681DE
S11306E01FD289C1F60110826FE08581968118D2EC
S11306F082C1009906C061E0F6018581968110D21D
S11307007AC160E0F601858196810AD274C1BE0186
S11307106F5F7D4FC60157DF019751F4CF5FDD4F07
S11307208881C150D240F601828781E0818763C10C
S113073060E0F60185819681F3D15DC1F601838184
S113074094817ED7882E811110C0CB5FDD4F188233
S1130750C550D240F80161918F01F60185819681DF
S1130760DFD10E151F05B1F746C199249394B12C1E
S1130770312C412C55245394702EA12EBE016F5F51
S11307807F4FF60183819481D8D1832D942D14C099
S113079080FF12C0E1E0F0E0EC0FFD1FE80FF91F4D
S11307A02081291109C08150E1E0F0E0EC0FFD1F28
S11307B0E80FF11DB08005C001968115F2E09F0796
S11307C039F7652C9E012F5F3D4F4B2D662DF601A9
S11307D083819481B4D5072D1A2DF80161918F017D
S11307E0F601858196819CD10E151F05B1F763949E
S11307F0F8E06F12E7CF9394891408F0BFCF04E0B8
S113080010E06AEFF601858196818AD101501109C1
S1130810C1F7F1C0BE016F5F7D4FC601D4DE029700
S113082001F5CE5FDD4F4881C250D24041110AC06C
S1130830CF5FDD4F6881C150D240F601838194813E
S113084035D409C0CF5FDD4F6881C150D240F60175
S1130850838194812BD46FE0F6018581968160D1E8
S1130860CAC004E010E06AEFF6018581968158D190
S113087001501109C1F7BFC0BE016F5F7D4FC601B2
S1130880A2DE0197E1F4CF5FDD4F6881C150D24011
S1130890F601838194819FD2882331F06FE0F601C1
S11308A0858196813DD1A7C004E010E06AEFF6018E
S11308B08581968135D101501109C1F79CC004E0AE
S11308C010E06AEFF601858196812AD10150110961
S11308D0C1F791C0BE016F5F7D4FC60174DE0397FF
S11308E031F5CD5FDD4F2881C350D240CE5FDD4F5F
S11308F04881C250D240CF5FDD4F6881C150D240A1
S1130900F601838194819DD5882331F060EFF6014F
S11309108581968105D16FC004E010E06AEFF6018D
S113092085819681FDD001501109C1F764C004E0AE
S113093010E06AEFF60185819681F2D00150110929
S1130940C1F759C06FE0F60185819681E9D0BE01F7
S11309506F5F7D4FC60137DEBC01892BA1F1FE011B
S11309603196CE018F5F9D4F1192E817F907E1F799
S1130970161617069CF520E030E0121613061CF438
S113098091E0920F01C0922FF80141918F01E1E0B3
S1130990F0E0EC0FFD1FE90FF11D40832F5F3F4F87
S11309A06217730751F71AC06FE0F60185819681CB
S11309B0B7D021C06AEFF60185819681B1D001508C
S11309C01109C1F718C004E010E06AEFF60185814F
S11309D09681A6D001501109C1F70DC0AE014F5F39
S11309E05F4F6981F6018381948125D48111DCCF25
S11309F004E010E0DFCF80E0CE5FDB4F0FB6F89469
S1130A00DEBF0FBECDBFDF91CF911F910F91FF903D
S1130A10EF90DF90CF90BF90AF909F908F907F909A
S1130A206F905F904F903F900895CF93DF93FC01B8
S1130A3021852223E1F0EC01AC01455F5F4F628523
S1130A40878190850E94400D882369F08B858823D7
S1130A5029F061E08D819E8163D009C060E08D81C1
S1130A609E815ED004C06AEF8D819E8159D0DF9152
S1130A70CF9108950F93DB01CA018E569109A10904
S1130A80B1098339914CA140B10588F52550243032
S1130A9070F580E28093C00088E98093C100220F42
S1130AA02093C200440F551F661F771F440F551F24
S1130AB0661F771F9A01AB01220F331F441F551F76
S1130AC0220F331F441F551F60E074E284EF90E04F
S1130AD00E949E11DA01C9010197A109B10980930D
S1130AE0C400892F9A2FAB2FBB278093C5000534F0
S1130AF031F4E2ECF0E080818062808307C00F343F
S1130B0029F4E2ECF0E08081806380830F91089502
S1130B10E0ECF0E080818823ECF78091C600089532
S1130B20E0ECF0E0808185FFFDCF6093C60008957E
S1130B30FC0171836083128208959B0140E050E0C0
S1130B40BA01FC018081918140C608950F931F93DF
S1130B50CF93DF93CDB7DEB7D2500FB6F894DEBF94
S1130B600FBECDBF8C01BE016F5F7F4FE6DF20E07B
S1130B7030E00DC020FF0BC0F8014281E1E0F0E05D
S1130B80EC0FFD1FE20FF31F9081491741F02F5F17
S1130B903F4F2115F2E03F0769F781E001C080E093
S1130BA0DE5F0FB6F894DEBF0FBECDBFDF91CF91ED
S1130BB01F910F910895EF92FF920F931F93CF937C
S1130BC0DF93CDB7DEB7D2500FB6F894DEBF0FBEB9
S1130BD0CDBF8C01E62EF42EBE016F5F7F4FADDFDB
S1130BE0FE01319620E030E09191992349F02F5F86
S1130BF03F4F211582E03807B9F720E030E003C009
S1130C002115310519F48981811116C0E1E0F0E064
S1130C10EC0FFD1FE20FF31FE082FE01E20FF31F52
S1130C20F2829E012F5F3F4F40E050E0BA01F8018D
S1130C308081918130D601C080E0DE5F0FB6F894E8
S1130C40DEBF0FBECDBFDF91CF911F910F91FF90FB
S1130C50EF900895FF920F931F93CF93DF93CDB737
S1130C60DEB7D4500FB6F894DEBF0FBECDBF8C01F3
S1130C70F62EBE016F5F7D4F80E092E0DB01FC0148
S1130C801D923197E9F7C80158DF40E050E040FD7C
S1130C9009C0E1E0F2E0EC0FFD1FE40FF51F8081D5
S1130CA08F1539F04F5F5F4F4115F2E05F0779F719
S1130CB040E0FE01319680E092E0DF019C011D924C
S1130CC021503040E1F7BE016F5F7D4F22E030E0FC
S1130CD050E02F3F81E038079CF4C9010297841744
S1130CE0950754F081E092E08C0F9D1F820F931FB3
S1130CF0DC018C91808306C0DB018C91808302C06F
S1130D00DB011C922F5F3F4F6F5F7F4F3196223084
S1130D10B2E03B07F1F69E012F5F3F4F40E050E009
S1130D20BA01F80180819181B6D5DC5F0FB6F894E1
S1130D30DEBF0FBECDBFDF91CF911F910F91FF900A
S1130D4008950F931F93CF93DF93CDB7DEB7D2509F
S1130D500FB6F894DEBF0FBECDBF8C01BE016F5F2E
S1130D607F4FEBDEF801428141111AC01FC020FF02
S1130D700DC0E1E0F0E0EC0FFD1FE20FF31F9081E6
S1130D80981751F02F3FF1E03F0781F02F5F3F4F5D
S1130D90211592E0390759F78F5F481720F406C0F0
S1130DA081E061E050E0262F352FE1CFDE5F0FB602
S1130DB0F894DEBF0FBECDBFDF91CF911F910F918D
S1130DC008959B0141E050E060E070E0FC01808107
S1130DD09181FBC40895CF92DF92EF92FF920F931B
S1130DE01F93CF93DF93CDB7DEB7D8500FB6F894E7
S1130DF0DEBF0FBECDBF6C01F62EFE01EF5FF94FD3
S1130E0080E092E0DF019C011D9221503040E1F727
S1130E10BE016F5F7B4FDB01FC011D923197E9F747
S1130E20FE01EF5FFD4FDF019C011D922150304018
S1130E30E1F7C60182DE2F2D30E021503109822FE7
S1130E40880F880F880F821B20E030E08E5F0CC073
S1130E5020FF0AC0E1E0F4E0EC0FFD1FE20FF31FF6
S1130E6090819F1101C0E82E2F5F3F4F211592E022
S1130E70390771F74E2D50E060E070E09E012F5F5E
S1130E803D4FD6018D919C91A0D4CD5FDD4F8881DB
S1130E90C350D240882309F457C0BE016F5F7F4F0F
S1130EA080E092E0FB019C01119221503040E1F777
S1130EB0C60187DF00E010E000FD24C0E1E0F0E0BF
S1130EC0EC0FFD1FE00FF11F9081CD5FDD4F888196
S1130ED0C350D240981316C081E0800FE1E0F0E0E7
S1130EE0EC0FFD1FE80FF11D8081815080839E016E
S1130EF02F5F3F4F41E050E060E070E0D6018D91FC
S1130F009C91C9D40F5F1F4F0115B2E01B07A1F6D6
S1130F101BC04E2D50E060E070E09E012F5F394F02
S1130F20F60180819181B7D4882389F0E394E1129A
S1130F30F0CFD60112968C911297815012968C9311
S1130F406F2DC60187DE03C01AE01E0DE2CFD85F05
S1130F500FB6F894DEBF0FBECDBFDF91CF911F91C6
S1130F600F91FF90EF90DF90CF900895FF920F9331
S1130F701F93CF93DF93CDB7DEB7D2500FB6F8945B
S1130F80DEBF0FBECDBF8C01F62EBE016F5F7F4F5B
S1130F9080E092E0FB019C01119221503040E1F786
S1130FA0C8010FDF20E030E020FD09C0E1E0F0E0FF
S1130FB0EC0FFD1FE20FF31F9081992349F02F5F7F
S1130FC03F4F211582E0380779F720E030E003C075
S1130FD02115310519F48981811113C0E1E0F0E094
S1130FE0EC0FFD1FE20FF31FF0829E012F5F3F4FB6
S1130FF041E050E060E070E0F801808191814BD4E1
S113100001C080E0DE5F0FB6F894DEBF0FBECDBF37
S1131010DF91CF911F910F91FF900895EF92FF926E
S11310201F93CF93DF93CDB7DEB7D2500FB6F894AA
S1131030DEBF0FBECDBF7C01162FBE016F5F7F4F99
S1131040C0DE20E030E020FD14C0E1E0F0E0EC0F71
S1131050FD1FE20FF31F908191130BC081E0820FFB
S1131060E1E0F0E0EC0FFD1FE80FF11D90819F5FC0
S113107090832F5F3F4F211582E0380721F79E01AF
S11310802F5F3F4F41E050E060E070E0F701808166
S1131090918101D4DE5F0FB6F894DEBF0FBECDBFE1
S11310A0DF91CF911F91FF90EF900895AF92BF927F
S11310B0CF92DF92EF92FF920F931F93CF93DF9320
S11310C0CDB7DEB7D2500FB6F894DEBF0FBECDBF9A
S11310D08C01C62ED42EDC0112968C9112978F5F50
S11310E012968C93C80132DD882309F44DC0FE01A9
S11310F0319680E092E0DF019C011D922150304046
S1131100E1F7C982D80112968C918A83DB82EE249E
S1131110E394F12CEC82F801828190E00197AC0118
S1131120440F551F440F551F440F551F481B590B9F
S11311304E0D5F1D4F5F5F4F052E000C660B770B46
S11311409E012F5F3F4F80819181A5D3811108C0FB
S1131150D80112969C911297915012969C935AC062
S1131160BFEFEB1AFB0AE8E0EE16F10499F66D2DD9
S1131170C80154DF882309F44DC0D80112964C915C
S11311806C2DC80118DD46C0C801DBDDA82EFE01A8
S1131190319680E092E0DF019C011D9221503040A5
S11311A0E1F7C982AA82DB822A2D30E0215031097D
S11311B07901EE0CFF1CEE0CFF1CEE0CFF1CE21A76
S11311C0F30A32E0E30EF11CBB24B394BC829E010B
S11311D02F5F3F4FA7010F2C000C660B770BD80134
S11311E08D919C9158D3811105C0F8019281915041
S11311F0928310C0B394FFEFEF1AFF0A28E0B212F3
S1131200E5CF6D2DC8010ADF882321F04A2D6C2D0E
S1131210C801D1DCDE5F0FB6F894DEBF0FBECDBFD0
S1131220DF91CF911F910F91FF90EF90DF90CF90BE
S1131230BF90AF9008958F929F92AF92BF92CF923A
S1131240DF92EF92FF920F931F93CF93DF93CDB76B
S1131250DEB7D2500FB6F894DEBF0FBECDBF6C011F
S1131260062F7A01BE016F5F7F4F80E092E0FB01A1
S11312709C01119221503040E1F7C6015EDCE0E0B0
S1131280F0E0E0FD20C0A1E0B0E0AC0FBD1FAE0F68
S1131290BF1F8C91801317C0EC0FFD1F1281812F8B
S11312A090E001974C01880C991C880C991C880CBF
S11312B0991C881A990A32E0830E911C092C000C9F
S11312C0AA08BB0808C03196E11582E0F807C9F600
S11312D0812C912C5401F70183819FEF980F973053
S11312E0D0F490E00197092E000CAA0BBB0B880EDA
S11312F0991EAA1EBB1E118309E010E09701B501D7
S1131300A401F60180819181C6D2811105C00150EA
S11313101109A1F701C080E0DE5F0FB6F894DEBFCB
S11313200FBECDBFDF91CF911F910F91FF90EF9032
S1131330DF90CF90BF90AF909F908F9008958F9241
S11313409F92AF92BF92CF92DF92EF92FF920F9350
S11313501F93CF93DF93CDB7DEB7D2500FB6F89477
S1131360DEBF0FBECDBF7C01162F042F6901BE0165
S11313706F5F7F4F80E092E0FB019C01119221504E
S11313803040E1F7C701D9DBE0E0F0E0E0FD1FC049
S1131390A1E0B0E0AC0FBD1FAE0FBF1F8C91801356
S11313A016C0EC0FFD1F828190E001974C01880C60
S11313B0991C880C991C880C991C881A990A32E08B
S11313C0830E911C092C000CAA08BB0808C0319696
S11313D0E11582E0F807D1F6812C912C54018FEFAE
S11313E0810F8730D0F4812F90E00197092E000CF3
S11313F0AA0BBB0B880E991EAA1EBB1E09E010E0A7
S11314009601B501A401F70180819181DED181119A
S113141005C001501109A1F701C080E0DE5F0FB6DD
S1131420F894DEBF0FBECDBFDF91CF911F910F9116
S1131430FF90EF90DF90CF90BF90AF909F908F90F0
S113144008954F925F926F927F92AF92BF92CF9224
S1131450DF92EF92FF920F931F93CF93DF93CDB759
S1131460DEB7D4500FB6F894DEBF0FBECDBF8C01EB
S1131470F62EA42EB22EBE016F5F7D4F5EDB80E0A0
S113148090E080FD1CC0E1E0F2E0EC0FFD1FE80FEE
S1131490F91F20812F1113C0E1E0F2E0EC0FFD1FD2
S11314A0E80FF91FF180A0829E012F5F3D4F40E0BD
S11314B050E0BA01F80180819181EDD107C0019615
S11314C08115F2E09F07E9F6FF24F3948F2D90E055
S11314D001976C01CC0CDD1CCC0CDD1CCC0CDD1C90
S11314E0C81AD90A22E0C20ED11C0D2C000CEE0839
S11314F0FF089E012F5F3F4FB701A601F8018081CD
S1131500918163D17B80BE016F5F7D4FC80159DC3F
S1131510E0E0F0E0E0FD17C0A1E0B2E0AC0FBD1FD9
S1131520AE0FBF1F8C9187110EC03196A1E0B2E0BF
S1131530AC0FBD1FAE0FBF1F8C91882349F0FD0176
S11315408150808305C03196E11532E0F30711F72D
S1131550E0E0F0E0E0FD1FC0A1E0B2E0AC0FBD1F91
S1131560AE0FBF1F8C918B1116C0319681E092E0B3
S11315708C0F9D1FE80FF91F80818F5F80839E0170
S11315802F5F3D4F41E050E060E070E0F801808162
S1131590918181D125C03196E11522E0F207D1F67F
S11315A027C09E012F5F3F4FB701A601F80180813C
S11315B091810BD1A982BB829E012F5F3F4FB7015E
S11315C0A601F8018081918166D1FFEFCF1ADF0A6D
S11315D0EF0AFF0AC414D504E604F70411F71AC08D
S11315E02601370127E0420E511C611C711CD9CF22
S11315F09E012F5F3D4F41E050E060E070E0F80154
S11316008081918148D16B2DC801B0DC6B2DC8015C
S113161005DDE6CF80E0DC5F0FB6F894DEBF0FBED9
S1131620CDBFDF91CF911F910F91FF90EF90DF908D
S1131630CF90BF90AF907F906F905F904F90089540
S1131640FC01828108951F93CF93DF93EC01162F41
S113165061E001960E94A1001883DF91CF911F9150
S113166008950F931F93CF93DF938C01EC01219680
S1131670CE010E94C200F80160816E7FCE010E94FB
S1131680CF0062E0CE010E94CF00CE010E94CB00C9
S1131690CE010E94C200F80160816160CE010E9407
S11316A0CF0061E0CE010E94DA00182FCE010E9423
S11316B0CB00212F2F701695169516951671812F34
S11316C0880F880F180F812F90E0820F911DDF91F2
S11316D0CF911F910F9108950F931F93CF93DF9391
S11316E08C01EC012196CE010E94C200F8016081B8
S11316F06E7FCE010E94CF0061E0CE010E94CF0038
S1131700CE010E94CB00CE010E94C200F80160818C
S11317106160CE010E94CF0061E0CE010E94DA0038
S1131720182FCE010E94CB00212F2F7012951F700D
S1131730110F812F880F880F180F812F90E0820FCF
S1131740911DDF91CF911F910F9108950F931F93D6
S1131750CF93DF938C01EC012196CE010E94C2004D
S1131760F80160816E7FCE010E94CF0063E0CE015C
S11317700E94CF00CE010E94CB00CE010E94C20085
S1131780F80160816160CE010E94CF0061E0CE016A
S11317900E94DA00182FCE010E94CB00812F90E026
S11317A0DF91CF911F910F9108950F931F93CF93C2
S11317B0DF93EC018B016DE770E039D11A83098363
S11317C0DF91CF911F910F910895AF92BF92CF9265
S11317D0DF92EF92FF920F931F93CF93DF9300D08A
S11317E01F92CDB7DEB7A82EB92E49835A836B83D7
S11317F07C836901F82EE92E6FEF1FD161E58A2DF4
S11318009B2D1BD16C818A2D9B2D17D16B818A2D29
S11318109B2D13D16A818A2D9B2D0FD169818A2D2D
S11318209B2D0BD16FEF8A2D9B2D07D18A2D9B2DDC
S11318300AD18A2D9B2D07D181111BC08F2D9E2D7E
S113184002D18F3FD9F38E3FB1F486018EEFD81ABF
S11318508F2D9E2DF8D0F80181938F01EC15FD0595
S1131860B9F78A2D9B2DEFD08A2D9B2DECD081E0EA
S113187003C080E001C080E00F900F900F900F90A4
S1131880DF91CF911F910F91FF90EF90DF90CF9058
S1131890BF90AF900895AF92BF92CF92DF92EF9234
S11318A0FF920F931F93CF93DF9300D01F92CDB776
S11318B0DEB7A82EB92E49835A836B837C836901D2
S11318C0F82EE92E6FEFB9D068E58A2D9B2DB5D09F
S11318D06C818A2D9B2DB1D06B818A2D9B2DADD02F
S11318E06A818A2D9B2DA9D069818A2D9B2DA5D033
S11318F06FEF8A2D9B2DA1D08A2D9B2DA4D08A2DEC
S11319009B2DA1D081115AC06FEF8A2D9B2D95D0AC
S11319106EEF8A2D9B2D91D086018EEFD81AF80197
S113192061918F018F2D9E2D88D00C151D05B9F75F
S11319306FEF8A2D9B2D81D06FEF8A2D9B2D7DD04B
S11319408F2D9E2D80D08823D9F3853E09F038C091
S11319508A2D9B2D78D08F2D9E2D75D08F3FD9F752
S11319606FEF8A2D9B2D69D06DE48A2D9B2D65D058
S113197060E08A2D9B2D61D060E08A2D9B2D5DD087
S113198060E08A2D9B2D59D060E08A2D9B2D55D087
S11319906FEF8A2D9B2D51D08A2D9B2D54D08A2DEB
S11319A09B2D51D0182F8A2D9B2D4DD0982F11117E
S11319B009C081E0992339F080E005C080E003C0CC
S11319C080E001C080E00F900F900F900F90DF91A6
S11319D0CF911F910F91FF90EF90DF90CF90BF9028
S11319E0AF9008956A3F7105A9F024F46D3771052D
S11319F0B1F019C0683E83E0780739F0603A7F405F
S1131A0091F48CB58C7F8CBD08958CB58C7F8160EE
S1131A108CBD08958CB58C7F82608CBD08958CB587
S1131A2083608CBD08958CB58C7F8CBD089527E0B0
S1131A3024B920E52CBDD6CF08956EBD0DB407FEA4
S1131A40FDCF8EB508958FEF8EBD0DB407FEFDCF8B
S1131A508EB508951F93CF93DF93EC01162F029652
S1131A6020D1CE0142969CD2188319828EEE95E83D
S1131A709093A5008093A400DF91CF911F910895C6
S1131A80AF92BF92DF92EF92FF920F931F93CF9387
S1131A90DF9300D0CDB7DEB77C015A0100E020E02F
S1131AA0462FFC01608142960FD3E1EAF0E0808189
S1131AB08560808387010E5F1F4F10C0C89B0EC0D6
S1131AC0C89AE1EAF0E080818A7F80838EEE95E80F
S1131AD09093A5008093A400F12C30C0C8010CD2CF
S1131AE0F82E8111EBCFE1EAF0E080818A7F8083D8
S1131AF08EEE95E89093A5008093A4009E012F5F3D
S1131B003F4FAE014E5F5F4FBE016D5F7F4F802F31
S1131B10912FCFD18981882381F09B81913071F4F9
S1131B209A81911104C0F5011082F82E07C09130FA
S1131B3029F4F5019083F82E01C0F82E8F2D0F9013
S1131B400F900F90DF91CF911F910F91FF90EF9025
S1131B50DF90BF90AF900895EF92FF920F931F9381
S1131B60CF93DF9300D0CDB7DEB77C01042F22E002
S1131B70462FFC0160814296A7D2E1EAF0E0808121
S1131B808560808387010E5F1F4F10C0C89B0EC005
S1131B90C89AE1EAF0E080818A7F80838EEE95E83E
S1131BA09093A5008093A40080E023C0C801A4D131
S1131BB08111ECCFE1EAF0E080818A7F80838EEEB0
S1131BC095E89093A5008093A4009E012F5F3F4F5A
S1131BD0AE014E5F5F4FBE016D5F7F4F802F912F2F
S1131BE068D18981882329F081E09B81953009F0AF
S1131BF080E00F900F900F90DF91CF911F910F9184
S1131C00FF90EF9008950F931F93CF93DF93EC0110
S1131C108C010E5E1F4FC80132D2882319F0C8010F
S1131C2006D303C0CE0102967FD1DF91CF911F91DD
S1131C300F9108950F931F93CF93DF93EC018C01C1
S1131C400E5E1F4FC8011BD2882319F0C8012FD381
S1131C5003C0CE01029684D1DF91CF911F910F91E1
S1131C6008954296FCC10895029605D0289A0895D5
S1131C7002964BC10895FC011182108213821282D4
S1131C801482158281E08683138617821686128653
S1131C90148617861586E1E9F0E080818D7F8083C4
S1131CA00895FC0160874187E1E7F0E0208121602D
S1131CB020831092B200DFCF0895FC019481992310
S1131CC051F020813181220F331F262B3183208351
S1131CD09F3048F405C020813181262B3183208335
S1131CE09F5F948308959F5F94830895FC01858189
S1131CF0882341F022813381220F331F262B338323
S1131D00228305C022813381262B33832283482FEB
S1131D1050E0238530E0285F3F4F421753071CF4FF
S1131D208F5F858308958F5F858316820895FC01F4
S1131D3080819181408550E0292F33272F703327EC
S1131D404217530751F4418550E09C01332781E049
S1131D504217530719F080E0089580E00895FC01CC
S1131D609385913049F482819381880F892F881F4C
S1131D70990B919581700895923049F482819381F1
S1131D80880F892F881F990B91958370089580E09F
S1131D900895FC016081718120E030E090E0AB01A6
S1131DA0022E02C0569547950A94E2F74170942793
S1131DB02F5F3F4F2031310591F76281738120E01D
S1131DC030E0AB01022E02C0569547950A94E2F723
S1131DD0417094272F5F3F4F2C30310591F781E0FC
S1131DE0911180E008951F93CF93DF93EC01162F98
S1131DF08F8181114DC08E818130C9F4CE015DDFA8
S1131E008C81843041F4888199810E9709F43DC016
S1131E1081E08F833DC08031C1F5CE0188DF882306
S1131E2019F082E08E8331C081E08F8331C082302B
S1131E30E9F4CE015BDF8D81833039F58A818770C7
S1131E408A87882321F09DEF980F923010F41B8627
S1131E501CC09FEF980F923018F481E08B8715C057
S1131E608550823090F482E08B870FC081111DC0B1
S1131E70E1E9F0E080818D7F8083CE0170DF8C8783
S1131E80CE0187DF8D8781E08E878F81882369F07B
S1131E902F9A113031F08F858F5F8F87863018F439
S1131EA004C01F8602C0CE01E6DEDF91CF911F91F0
S1131EB00895CF93DF93DC011E96EC911E97EE23D9
S1131EC091F0E9011A968C911A97FB0180831C9674
S1131ED06C911C97FA0160831D964C911D97488361
S1131EE0CD01C9DE06C0DB011C92FA011082D901C2
S1131EF01C92DF91CF910895FC0186850895E1EB52
S1131F00F0E08081846080830895E1EBF0E08081DB
S1131F108B7F808380818B7F808380818B7F808394
S1131F201092B200B89A08950F931F93CF93DF9342
S1131F308C01E5DF80E0C0E0D1E007C0988196FF26
S1131F4004C061E0C8014FDF81E0B89902C0882372
S1131F50A9F3C801DADFDF91CF911F910F910895A2
S1131F60FF920F931F93CF93DF938C01C8DF80E020
S1131F70C0E0D1E0FF24F39407C0988196FF04C029
S1131F8060E0C80130DF8F2DB89902C08823A9F31F
S1131F90C801BBDFDF91CF911F910F91FF9008958E
S1131FA0FC0111821082138212821682148215821D
S1131FB017828EE08087E1E8F0E080818061808391
S1131FC08081877F8083A0E8B0E08C918D7F8C93A3
S1131FD08C918E7F8C9380818B7F808380818D7F99
S1131FE0808380818160808383E490E09093870084
S1131FF0809386008C9180688C938C918F7B8C93DA
S11320001092890010928800259A85B5877F85BD36
S113201084B58D7F84BD84B58E7F84BD85B58B7F6B
S113202085BD85B58D7F85BD85B58E7F85BDEEE685
S1132030F0E080818160808386E086BD089581E23E
S113204090E0909389008093880085B58B7F85BD4F
S113205085B5826085BD85B5816085BD089585B5EA
S11320608B7F85BD85B58D7F85BD85B58E7F85BD0F
S113207086E086BD10928900109288000895FC01C4
S11320808781089520E030E080E0FB01022E02C049
S1132090F695E7950A94E2F7E1708E272F5F3F4F9C
S11320A02031310591F720E030E0BA01022E02C060
S11320B0769567950A94E2F7617086272F5F3F4F04
S11320C02430310591F70895FF920F931F93CF9316
S11320D0DF9300D01F92CDB7DEB71C821B821A8219
S11320E01982EB81FC81DC0118963C91E32BFC8383
S11320F0EB83EB81FC81E295F295F07FFE27E07F94
S1132100FE27FC83EB83EB81FC81DF01A62BBD0161
S11321107C836B836B817C81762F66277C836B83C6
S11321206B817C81FB01E42BAF015C834B83498190
S11321305A81422B5A834983222371F13DEF320F96
S1132140323078F13FEF320F323080F429813A8116
S1132150220F331F3A83298329813A81202B3A8322
S113216029830F2EFAE0FF2EF02D1FC025502230B8
S113217008F053C029813A81220F331F220F331FE5
S11321803A83298329813A81202B3A8329830F2E8C
S1132190FBE0FF2EF02D09C00F2EF9E0FF2EF02DED
S11321A004C00F2EF9E0FF2EF02D8C0189819A8155
S11321B0880F991F9A83898349815A816B817C8115
S11321C0C80160DF29813A81282B3A8329838981D8
S11321D09A810024969587950794969587950794F8
S11321E0982F802D9A8389838B819C81D8011196A5
S11321F09C938E9389819A8113969C938E931297C4
S11322008FE014968C9314971596FC92159781E0A1
S113221017968C93179716968C930F900F900F9098
S11322200F90DF91CF911F910F91FF900895CF935D
S1132230DF93FC0127812223B9F1EC0186818130EF
S1132240C9F481E090E0048002C0880F991F0A94C9
S1132250E2F72081318182239323892B29F1CF0155
S1132260EEDE8C81882319F081508C831DC082E0BE
S11322708E831AC08230C1F481E090E0058002C0F0
S1132280880F991F0A94E2F72281338182239323D2
S1132290892B51F0CF01D3DE8D81882319F0815031
S11322A08D8302C01F821E82DF91CF910895CF9348
S11322B0DF93FC012781222309F43DC0EC018681D0
S11322C08130E1F481E090E09C01048002C0220F9F
S11322D0331F0A94E2F7808191818095909582233F
S11322E09323892B41F1CF01AADE8C81882319F035
S11322F081508C8320C082E08E831DC08230D9F44B
S113230081E090E09C01058002C0220F331F0A94F3
S1132310E2F7828193818095909582239323892B80
S113232051F0CF018CDE8D81882319F081508D838B
S113233002C01F821E82DF91CF910895A1E21A2E5E
S1132340AA1BBB1BFD010DC0AA1FBB1FEE1FFF1F55
S1132350A217B307E407F50720F0A21BB30BE40BA5
S1132360F50B661F771F881F991F1A9469F76095EC
S11323707095809590959B01AC01BD01CF010895A6
S1132380EE0FFF1F881F8BBF0790F691E02D199465
S1072390F894FFCFEB
S9030000FC
